:0C800000F8B500BFF8BC08BC9E467047F5
:10800C0008B50021044600F057F9044B1868C36BFF
:10801C0003B19847204600F02BFA00BFB084000053
:10802C0008B500F07FF80024094B4FF0E02241F234
:10803C006F700321C3F80043C3F80004C3F808149D
:10804C00D2F8003143F48003C2F80031FEE700BFE0
:10805C0000F0FFFF024B13B1024800F093B97047D8
:10806C00000000009D83000010B5054C237833B947
:10807C00044B13B10448AFF300800123237010BDEF
:10808C002489010000000000E084000008B5034BC7
:10809C001BB103490348AFF3008008BD000000008A
:1080AC0028890100E0840000A3F5803A704700BFE6
:1080BC00174B002B08BF134B9D46FFF7F5FF002114
:1080CC008B460F461348144A121A00F0A3F80E4BB5
:1080DC00002B00D098470D4B002B00D09847002068
:1080EC00002104000D000D48002802D00C4800F0BF
:1080FC0049F900F06BF820002900FFF791FFFFF71A
:10810C007FFF00BF0000080000000000000000001E
:10811C000000000024890100688B0100918300009D
:10812C009D8300000A4801210A4BC26E42F0C00236
:10813C0010B4C2660222084C0020C4F840214FF053
:10814C00B24218615DF8044B9A60D96019617047AE
:10815C0000C00F4000803A4000801F40024A536923
:10816C009B07FCD51064704700803A4009490120F8
:10817C00094B0A4AC3F80C040B6801EB43039888BB
:10818C0080B253699B07FCD510640B680133DBB2DA
:10819C000B6070474089010000F0FFFF00803A40FF
:1081AC00064B0021064AB3FBF0F003230138C2F85A
:1081BC000013C2F80004C2F808347047006CDC02EB
:1081CC0000F0FFFF08B5FFF72BFF00BF70B50D4E99
:1081DC000D4D761BB61006D0002455F8043B013427
:1081EC009847A642F9D1094E094D761BFFF702FFBD
:1081FC00B61006D0002455F8043B01349847A6422B
:10820C00F9D170BDE4840100E4840100EC84010028
:10821C00E4840100830730B548D0541E002A3FD0B7
:10822C00CAB2034601E0013C3AD303F8012B9D0787
:10823C00F9D1032C2DD9CDB245EA05250F2C45EAF1
:10824C00054536D9A4F1100222F00F0C03F1200ED3
:10825C00E6444FEA121C03F1100242E9045542E9CC
:10826C00025510327245F8D10CF1010214F00C0FCA
:10827C0003EB021204F00F0C13D0ACF1040323F047
:10828C0003030433134442F8045B9342FBD10CF018
:10829C0003042CB1CAB21C4403F8012B9C42FBD141
:1082AC0030BD64461346002CF4D1F9E7034614465E
:1082BC00BFE71A46A446E0E72DE9F84F2F4B2DED0A
:1082CC00028B834618680F4600F082F82C4BD3F8CB
:1082DC000080D8F84861AEB108EE10BA4FF0010931
:1082EC004FF0000A7468651E0CD4013406EB84044C
:1082FC0087B1D4F80031BB420CD0013D6B1CA4F10A
:10830C000404F5D1BDEC028B1C4B1868BDE8F84F8A
:10831C0000F066B873682268013BAB420CBF756015
:10832C00C4F800A0002AE8D0D6F88801D6F804B02A
:10833C0009FA05F101420BD1904772685A4513D1E5
:10834C00D8F84831B342D8D01E46002ECAD1D9E74E
:10835C00D6F88C0101420CD1D4F8801018EE100A1A
:10836C00904772685A45EBD0D8F84861002EB9D1C5
:10837C00C8E7D4F880009047DFE700BF20890100F0
:10838C00B0840000002301461A46184600F02AB8B3
:10839C0038B5084B084D5B1B9C1007D0043B1D44A3
:1083AC00013C55F804399847002CF9D1BDE8384008
:1083BC0000F060B8F0840100EC840100704700BF4D
:1083CC00704700BF704700BF704700BF704700BFC9
:1083DC00704700BF0120704701207047704700BFF5
:1083EC00704700BF2DE9F047DFF880A00646DAF8A9
:1083FC00000098460F469146FFF7EAFF1A4B1B68A0
:10840C00D3F8484124B365681F2D26DC5EB96B1C7C
:10841C000235DAF80000636044F82570FFF7E0FFDE
:10842C000020BDE8F08704EB85010123C1F888909A
:10843C00D4F88821AB401A43022EC4F88821C1F825
:10844C000881E4D1D4F88C211343C4F88C31DEE7D5
:10845C0003F5A674C3F84841D5E7DAF80000FFF736
:10846C00BFFF4FF0FF30DCE7B08400002089010033
:04847C00FEE700BF58
:0C848000F8B500BFF8BC08BC9E46704771
:10848C003B3E0B3E103E253E333E033E063E143E25
:10849C000E3E0D3E243E123E273E023E183E093E45
:1084AC000A3E0000F88401003B3E0B3E103E253E88
:1084BC00333E033E063E143E0E3E0D3E243E123E1F
:0C84CC00273E023E183E093E0A3E00001A
:0884D800DCFBFF7F0100000046
:0484E0000000000098
:020000021000EC
:0884E400618000009980000096
:0484EC007580000097
:1084F00000000000F884010000000000E487010093
:108500004C880100B4880100000000000000000059
:10851000000000000000000000000000000000005B
:10852000000000000000000000000000000000004B
:10853000000000000000000000000000000000003B
:10854000000000000000000000000000000000002B
:10855000000000000000000000000000000000001B
:10856000000000000000000000000000000000000B
:1085700000000000000000000000000000000000FB
:1085800000000000000000000000000000000000EB
:1085900000000000000000000000000000000000DB
:1085A00001000000000000000E33CDAB34126DE678
:1085B000ECDE05000B0000000000000000000000E1
:1085C00000000000000000000000000000000000AB
:1085D000000000000000000000000000000000009B
:1085E000000000000000000000000000000000008B
:1085F000000000000000000000000000000000007B
:048920004C8B01007B
:04000003000080BDBC
:00000001FF
